:100000000C9462000C947F000C947F000C947F0091
:100010000C947F000C947F000C947F000C947F0064
:100020000C947F000C947F000C947F000C947F0054
:100030000C947F000C947F000C947F000C947F0044
:100040000C9427010C947F000C947F000C947F008B
:100050000C947F000C947F000C947F000C947F0024
:100060000C947F000C947F00000000002300260009
:10007000290000000008000201000003040700003E
:1000800000000000000000000000250028002B00F8
:1000900000000000240027002A00040404040404D3
:1000A0000404020202020202030303030303010227
:1000B00004081020408001020408102001020408F6
:1000C0001020A60211241FBECFEFD8E0DEBFCDBFA7
:1000D00021E0A0E0B1E001C01D92A232B207E1F739
:1000E00010E0C2E6D0E004C02197FE010E94C202E7
:1000F000C136D107C9F70E9471010C94C8020C9453
:100100000000833081F028F4813099F08230A1F032
:1001100008958730A9F08830B9F08430D1F4809107
:1001200080008F7D03C0809180008F778093800056
:10013000089584B58F7702C084B58F7D84BD0895FE
:100140008091B0008F7703C08091B0008F7D809345
:10015000B00008953FB7F894809101019091020199
:10016000A0910301B091040126B5A89B05C02F3FC3
:1001700019F00196A11DB11D3FBFBA2FA92F982FCD
:100180008827820F911DA11DB11DBC01CD0142E048
:10019000660F771F881F991F4A95D1F70895CF9250
:1001A000DF92EF92FF920F931F93CF93DF932FE78E
:1001B000C22E20E0D22EF60184913BEBE32E30E0FC
:1001C000F32EF7010491C7EAD0E0FE011491112348
:1001D000A9F081110E948100212F30E0220F331FEE
:1001E00028593F4FF901A591B4918C91082391E0D2
:1001F00080E009F490E0092F182F02C000E010E021
:10020000F6018491F701E490FE01C491CC23B1F092
:1002100081110E948100EC2FF0E0EE0FFF1FEA57E2
:10022000FF4FA591B4918FB7F8949C91012B19F0D1
:10023000E094E92201C0E92AEC928FBFDF91CF91CF
:100240001F910F91FF90EF90DF90CF9008951F9234
:100250000F920FB60F9211242F933F938F939F937A
:10026000AF93BF938091050190910601A091070182
:10027000B09108013091000123E0230F2D3720F4C5
:100280000196A11DB11D05C026E8230F0296A11DF0
:10029000B11D209300018093050190930601A09366
:1002A0000701B09308018091010190910201A09192
:1002B0000301B09104010196A11DB11D80930101BC
:1002C00090930201A0930301B0930401BF91AF91F9
:1002D0009F918F913F912F910F900FBE0F901F9084
:1002E0001895789484B5826084BD84B5816084BD9E
:1002F00085B5826085BD85B5816085BD80916E00C4
:10030000816080936E0010928100809181008260F4
:100310008093810080918100816080938100809131
:1003200080008160809380008091B1008460809320
:10033000B1008091B00081608093B00080917A001C
:10034000846080937A0080917A00826080937A0042
:1003500080917A00816080937A0080917A00806831
:1003600080937A001092C100EBEBF0E02491E7EA71
:10037000F0E08491882399F090E0880F991FFC01A8
:10038000E057FF4FA591B491FC01EA57FF4F8591CB
:1003900094918FB7F894EC91E22BEC938FBF8091FE
:1003A000180190911901892BA9F180911001909168
:1003B00011010197A1F42FB7F89480910501909154
:1003C0000601A0910701B09108012FBF80931A0187
:1003D00090931B01A0931C01B0931D010AC00E94C1
:1003E000AA0060931A0170931B0180931C019093E3
:1003F0001D0181E0809309011092120110921301F6
:10040000109214011092150181E090E09093170171
:1004100080931601C0E0D0E080910901882309F49F
:100420008FC080911001909111010197C9F52FB7EC
:10043000F8948091050190910601A0910701B09177
:1004400008012FBF40911A0150911B0160911C01BE
:1004500070911D01841B950BA60BB70B40910A01EF
:1004600050910B0160910C0170910D01841795075B
:10047000A607B70708F464C02FB7F8948091050168
:1004800090910601A0910701B09108012FBF8093C0
:100490001A0190931B01A0931C01B0931D0127C06A
:1004A0000E94AA0000911A0110911B0120911C01C9
:1004B00030911D01DC01CB01801B910BA20BB30B12
:1004C00000910A0110910B0120910C0130910D0156
:1004D00080179107A207B30798F10E94AA006093C2
:1004E0001A0170931B0180931C0190931D01409190
:1004F00012015091130160911401709115018091C6
:100500000E0190910F01A0E0B0E0841B950BA60BAB
:10051000B70B0197A105B10511F4109209014F5FC6
:100520005F4F6F4F7F4F40931201509313016093C1
:10053000140170931501E0911801F09119010995CA
:10054000209709F469CF0E94000066CFE9E0F1E04E
:100550001086178280E291EAA7E0B0E0818392835F
:10056000A383B483168215828FEC90E0908B8787EB
:100570001082118A128A138A148A118612861386AF
:1005800014860895EE0FFF1F0590F491E02D099455
:04059000F894FFCF0D
:00000001FF
